:1000000026C035C034C033C032C0C9C030C02FC0D4
:100010002EC02DC02CC02BC02AC029C028C0000073
:10002000000037000000000036000000000038002B
:10003000020202020202020202020102040810206D
:100040002004100801020000040000000000112438
:100050001FBECFE5D2E0DEBFCDBF20E0A0E6B0E01E
:1000600001C01D92A936B207E1F7E3D06EC1C8CF37
:10007000823089F018F4813051F00895833019F0FE
:10008000843009F008958CB58F7D8CBD08958AB5B4
:100090008F778ABD08958AB58F7DFBCF1F93CF934D
:1000A000DF93E4E4F0E09491EAE3F0E0D491E0E35C
:1000B000F0E0C491CC23B1F0182F992311F0892FCF
:1000C000D7DFEC2FF0E0EE0FFF1FE65DFF4FA591AD
:1000D000B4918FB7F894EC91111108C0D095DE233C
:1000E000DC938FBFDF91CF911F910895DE2BF8CF66
:1000F0003FB7F8948091650090916600A0916700E9
:10010000B091680022B708B601FE05C02F3F19F074
:100110000196A11DB11D3FBFBA2FA92F982F882787
:10012000BC01CD01620F711D811D911D46E0660F5E
:10013000771F881F991F4A95D1F708958F929F9234
:10014000AF92BF92CF92DF92EF92FF926B017C0150
:10015000CFDF4B015C01C114D104E104F104B1F023
:10016000C7DF681979098A099B09683E73408105D0
:10017000910588F321E0C21AD108E108F10888EE60
:10018000880E83E0981EA11CB11CE5CFFF90EF9074
:10019000DF90CF90BF90AF909F908F9008951F9267
:1001A0000F920FB60F9211242F933F938F939F932B
:1001B000AF93BF938091610090916200A091630022
:1001C000B09164003091600020E3230F2D3758F583
:1001D0004096A11DB11D2093600080936100909313
:1001E0006200A0936300B0936400809165009091D9
:1001F0006600A0916700B09168000196A11DB11D35
:100200008093650090936600A0936700B0936800A8
:10021000BF91AF919F918F913F912F910F900FBE02
:100220000F901F90189523EB230F4196A11DB11D30
:10023000D2CF78948AB582608ABD8AB581608ABD42
:1002400083B7826083BF83B7816083BF89B78260D1
:1002500089BF80B7826080BF3298319A309A379ACE
:100260008CB580648CBDEAE3F0E02491E0E3F0E03B
:100270008491882399F090E0880F991FFC01E25E39
:10028000FF4FA591B491FC01E65DFF4F85919491DC
:100290008FB7F894EC91E22BEC938FBF80E0FEDEF9
:1002A0000DE310E0F8012491C3E3D0E0FE01849156
:1002B0008823C9F090E0880F991FFC01E25EFF4F90
:1002C000A591B491FC01E65DFF4F459154919FB714
:1002D000F8943C91822F809583238C93FA0180813E
:1002E000282B20839FBF68EC70E080E090E026DF41
:1002F000E7E4F0E08491F8010491FE01C491CC237D
:10030000A9F08111B5DEEC2FF0E0EE0FFF1FEC5DE0
:10031000FF4FA591B4918C91082341F0B89A82E4E3
:100320008ABD83E083BF8BE989BDFFCF6AE070E0BF
:1003300080E090E003DF81E0B1DE6AE070E080E021
:0E03400090E0FCDE80E0AADEF1CFF894FFCF63
:00000001FF
